:020000040000FA
:0600000013EF09F01200ED
:020006001200E6
:060008004BEF02F01200B4
:02000E000100EF
:0C001000421200008000000020000000F0
:04001C00D9CFE6FF53
:10002000E1CFD9FF040EE126FD0EDBCF20F0FE0E5E
:10003000DBCF21F0213404E220500008000E2154CF
:1000400023E2DE6ADE6ADE6ADD6ADD52DD52D9CF86
:10005000E9FFDACFEAFF850EEE5C450EEE58010EA1
:10006000EE58000EEE580AE2D9CFE9FFDACFEAFFE8
:10007000EE2A000EEE22EE22EE22E9D7FD0EDB067E
:10008000FE0E01E2DB06D0D7040EE15C02E2E16A7B
:10009000E552E16EE552E7CFD9FF1200D9CFE6FF76
:1000A000E1CFD9FF020EE126FD0EDBCF20F0FE0EE0
:1000B000DBCF21F0213404E220500008000E21544F
:1000C00016E2DE6ADD6ADECF20F0DDCF21F0820E9F
:1000D000205C000E215805E2DF2A010E01E3DB2A35
:1000E000F2D7FD0EDB06FE0E01E2DB06DDD7020EC7
:1000F000E15C02E2E16AE552E16EE552E7CFD9FF49
:100100001200D9CFE6FFE1CFD9FFE652FD0EDBCFDB
:1001100020F0FE0EDBCF21F0213404E22050000855
:10012000000E21540CE2DF6A1C0EDF5C02E2DF2AC3
:10013000FBD7FD0EDB06FE0E01E2DB06E7D7DF6A2A
:10014000E552E552E7CFD9FF1200D9CFE6FFE1CF64
:10015000D9FF8B908B82FE0EDB508C6E8B920A0E39
:10016000E66EE66A9BDFE552E552E552E7CFD9FF3E
:100170001200D9CFE6FFE1CFD9FF8B808B82FE0E34
:10018000DB508C6E8B920A0EE66EE66A87DFE552D4
:10019000E552E552E7CFD9FF1200380EE66ED5DF03
:1001A000E5520C0EE66ED1DFE552010EE66ECDDFB4
:1001B000E552120096C020F097C021F0640E0D6E3B
:1001C0000E6A20C008F021C009F040EC04F008C01D
:1001D00020F009C021F0300E20240001AA6F96C043
:1001E00020F097C021F00A0E0D6E0E6A20C008F0B4
:1001F00021C009F040EC04F008C020F009C021F053
:100200000A0E0D6E0E6A20C008F021C009F040EC05
:1002100004F004C020F005C021F0300E20240001BD
:10022000AB6F96C020F097C021F00A0E0D6E0E6ADB
:1002300020C008F021C009F040EC04F004C020F018
:1002400005C021F0300E20240001AC6F94C020F0D6
:1002500095C021F0E80E0D6E030E0E6E20C008F062
:1002600021C009F040EC04F008C020F009C021F0E2
:10027000300E20240001AD6F94C020F095C021F015
:10028000640E0D6E0E6A20C008F021C009F040EC2B
:1002900004F008C020F009C021F00A0E0D6E0E6AAD
:1002A00020C008F021C009F040EC04F004C020F0A8
:1002B00005C021F0300E20240001AE6F94C020F064
:1002C00095C021F0640E0D6E0E6A20C008F021C0AA
:1002D00009F040EC04F008C020F009C021F00A0E3B
:1002E0000D6E0E6A20C008F021C009F040EC04F049
:1002F00004C020F005C021F0300E20240001AF6FB3
:1003000094C020F095C021F00A0E0D6E0E6A20C038
:1003100008F021C009F040EC04F004C020F005C052
:1003200021F0300E20240001B06F800EE66E0DDF4C
:10033000E552AAC0E6FF1DDFE552ABC0E6FF19DFBC
:10034000E552ACC0E6FF15DFE5526B0EE66E11DF3D
:10035000E5526D0EE66E0DDFE5522F0EE66E09DFFB
:10036000E552680EE66E05DFE552880EE66EEDDEBC
:10037000E55290C0E6FF91C0E6FF78D8E552E5521D
:10038000E66EF7DEE5528EC0E6FF8FC0E6FF6ED860
:10039000E552E552E66EEDDEE5528CC0E6FF8DC01B
:1003A000E6FF64D8E552E552E66EE3DEE5528AC028
:1003B000E6FF8BC0E6FF5AD8E552E552E66ED9DE7D
:1003C000E55288C0E6FF89C0E6FF50D8E552E55205
:1003D000E66ECFDEE55286C0E6FF87C0E6FF46D870
:1003E000E552E552E66EC5DEE5524B0EE66EC1DE25
:1003F000E5524D0EE66EBDDEE552C00EE66EA5DEA0
:10040000E552ADC0E6FFB5DEE5522E0EE66EB1DE7A
:10041000E552AEC0E6FFADDEE552280EE66EA9DE7F
:10042000E552780EE66EA5DEE552310EE66EA1DEEF
:10043000E552300EE66E9DDEE552300EE66E99DE38
:10044000E552300EE66E95DEE552290EE66E91DE3F
:10045000E552520EE66E8DDEE552500EE66E89DEF6
:10046000E5524D0EE66E85DEE5521200D9CFE6FF6D
:10047000E1CFD9FFE652FD0EDBCF20F0FE0EDBCF41
:1004800021F0300E2024DF6EDF5000D0E552E5521F
:10049000E7CFD9FF1200DACFE4FFE2CFDAFFE9CFEE
:1004A000E4FFEACFE4FFF6CFE4FFF7CFE4FFF5CFB8
:1004B000E4FFF3CFE4FFF4CFE4FFFACFE4FF00EE74
:1004C00000F0140EE80403E3EECFE4FFFBD700EEE8
:1004D00020F00C0EE80403E3EECFE4FFFBD7E65276
:1004E000F0A263D00001802B000E8123842B852392
:1004F000F092D890815104E67D0E805D030E815903
:1005000054E3862B000E8723873504E286510908C1
:10051000000E875548E2866B876B882B000E892377
:10052000893504E288510908000E89553CE2886B40
:10053000896B8A2B000E8B238B3504E28A510908C4
:10054000000E8B5530E28A6B8B6B8C2B000E8D234B
:100550008D3504E28C510908000E8D5524E28C6B18
:100560008D6B8E2B000E8F238F3504E28E51090880
:10057000000E8F5518E28E6B8F6B902B000E91231F
:10058000913504E290510908000E91550CE2866BFA
:10059000876B886B896B8A6B8B6B8C6B8D6B8E6BAF
:1005A0008F6B906B916B806B816BF0A005D0F0909E
:1005B0000001922B000E9323F2A497D0F294000135
:1005C0008207000E835B8251831101E08ED092C0BE
:1005D0001CF093C01DF03C0E1D02F3CF1DF01C0259
:1005E000F3CF1CF0F4501D261CC008F01DC009F00C
:1005F000C0EC03F007C018F008C019F009C01AF0E9
:100600000AC01BF018C0E6FF19C0E6FF1AC0E6FFDB
:100610001BC0E6FF16EC08F0E552E552E552E55244
:1006200006C014F007C015F008C016F009C017F096
:1006300014C007F015C008F016C009F017C00AF082
:1006400066EC04F008C094F009C095F0290E186E0D
:100650005C0E196E8F0E1A6E3F0E1B6E84C008F072
:1006600085C009F0C0EC03F007C01CF008C01DF005
:1006700009C01EF00AC01FF01CC00CF01DC00DF018
:100680001EC00EF01FC00FF018C007F019C008F010
:100690001AC009F01BC00AF0D3EC03F007C014F035
:1006A00008C015F009C016F00AC017F0660E0C6EEF
:1006B0000D6E0E6E400E0F6E14C007F015C008F0E0
:1006C00016C009F017C00AF0D3EC03F066EC04F092
:1006D00008C096F009C097F00001926B936BE80E8A
:1006E000826F030E836F846B856BE55200EE2BF0F7
:1006F0000C0EE80403E3E5CFEDFFFBD700EE13F0AB
:10070000140EE80403E3E5CFEDFFFBD7E5CFFAFFD6
:10071000E5CFF4FFE5CFF3FFE5CFF5FFE5CFF7FF3A
:10072000E5CFF6FFE5CFEAFFE5CFE9FFE5CFDAFF5A
:100730001100F18CF088F08EF092F086F08CF09041
:10074000F28EF28AF184C20ED56E050ED66E9382B9
:1007500093840F0EC16ED38CD38AD388060E936E0A
:10076000946A956A1200E5DF18DD0A0EE66EE66A05
:0C07700095DCE552E5521EDDFED71200BC
:04077C00019E08D002
:10078000019E09AE05D0086C091EE86A0922018E97
:1007900009C003F008C002F0136A126A8E0E046EDC
:1007A000056AB1EF04F0016AEDEC04F005EC05F028
:1007B00001B695EF04F001A205D001B895EF04F061
:1007C0009CEF04F001AA05D001B095EF04F09CEF76
:1007D00004F001B002D001A802D0A8EF04F0056A2D
:1007E0000F500A24046EE86A05227E0E045EE86A51
:1007F000055A126A136A026A036A0E500902F4CF9C
:1008000003F0F3CF02F00D500902F3501326F45019
:100810000222000E03220E500802F3501326F45059
:100820000222000E03220C500902F3501226F4504B
:100830001322000E022203220D500802F35012264A
:10084000F4501322000E022203220E500702F3502E
:100850001226F4501322000E022203220C5008022A
:10086000F4501226000E1322022203220D5007021A
:10087000F4501226000E132202220322B1EF04F0DC
:10088000006A0EAE49EF04F00D6C0E1EE86A0E22EF
:10089000001E09AE51EF04F0086C091EE86A092237
:1008A000001EEDEC08F009BE61EF04F000AE000C94
:1008B000086C091EE86A0922046C051EE86A052214
:1008C000000C00BE58EF04F00188FF0C016AEDEC4B
:1008D00004F001B670EF04F001A20ED001B405D00F
:1008E0007F0E096EFF0E086E1FD0800E096E086A1B
:1008F0001BD0096A086A18D001B0FBD78F0E0A60B6
:10090000EDD77E0E0A64F5D78E0E0A5C05E0D8900E
:10091000093208320A2AF8D701A406D0086C091E49
:10092000E86A092209AEE5D712007F0E0A6EFF0EB3
:10093000096E086E076E12007F0E01BEFF0E0A6E72
:1009400002D07F0E0A6E800E096E086A076AF3D71E
:1009500001AE04D0800E0A6E096AF7D70A6A096AE6
:10096000F4D70350021013101210F8E005BEF0D7B0
:1009700003BE0CD004500510EBE0D89012361336AD
:10098000023603360406D8A00506F2D70550D4E196
:100990000428D2E012AE11D07F0E121402E113A08F
:1009A0000CD0132AE86A0222032207E3D88003321C
:1009B00002321332042A0428BFE00450C9E013C0F5
:1009C00007F002C008F00334096E04300A6E0932E1
:1009D0000A9E01BE0A8E9BEF04F009360A3602E336
:1009E0000184017E06E101800A6A096A086A076AD1
:1009F00012000A2803E0D88009321200D890093288
:100A000002E101821200018612000E360F3602E367
:100A1000018C017E06E101880F6A0E6A0D6A0C6A7C
:100A200012000F2803E0D8800E321200D8900E3248
:100A3000EAE1018A12000F7E016AEDEC04F005EC98
:100A400005F001B695EF04F001A20AD001AA03D087
:100A500001BE95EF04F001A4A1EF04F09EEF04F0B5
:100A600001AA05D001ACA1EF04F09EEF04F001A0B3
:100A70000AD001A808D001BE04D001A402D0AAEF78
:100A800004F0AEEF04F0126A056A0F500A5C116EB2
:100A900010E307C013F008C002F009C003F00AC059
:100AA00010F00CC007F00DC008F00EC009F0013ABC
:100AB00009D00CC013F00DC002F00EC003F00FC03F
:100AC00010F0116C019E01BC018E10C004F001B049
:100AD000DDEF04F01A0E1160DDEF04F0046A0A6A1B
:100AE00001A408D0076C081E091E0A1EE86A082225
:100AF00009220A2201AC08D0136C021E031E041E38
:100B0000E86A022203220422066A115207E00A342C
:100B10000932083207320632112EF9D70750132650
:100B200008500222095003220A50042206C012F083
:100B3000019E04AE0BD0126C131E021E031E041E77
:100B4000E86A1322022203220422018E04A006D0A6
:100B5000D8800332023213321232102A10C004F04D
:040B6000B1EF04F0FD
:0C0B6400D9CFE6FFDACFE6FFE1CFD9FFE2
:100B7000E2CFDAFF130EE12402E3E168E652E16E10
:100B80000C0EDB6AD950FA0FE96EFF0EDA20EA6E1E
:100B9000080EEECFDBFF090EEECFDBFF0A0EEECF25
:100BA000DBFF0B0EEECFDBFF1FD9D950080F17D993
:100BB000EECFE6FFEECFE6FFEECFE6FFEFCFE6FFAC
:100BC000FBEC06F0206E060EE15C02E2E16AE55203
:100BD000E16E2050DF6E020EDF5C01E0BCD0050E3E
:100BE000DBCF22F0060EDBCF23F0F80EDB50225CC9
:100BF000206EF90EDB502358216E7F0E205E000E12
:100C0000215A0D0E20C0DBFF0E0E21C0DBFF0D0EA2
:100C10000E0EDBCF21F00001800E21140AE0010E40
:100C2000F36E0C0EF3CFDBFF070EDB5001E098D024
:100C30009DD00D0EDBCF20F00E0EDBCF21F0D89033
:100C4000215004E6170E205C000E215801E39ED0CF
:100C5000246825687F0E266E276A0D0EDB501F0B59
:100C600024C020F025C021F026C022F027C023F0A8
:100C700007E0D8902332223221322032E806F9E10F
:100C80000F0E20C0DBFF100E21C0DBFF110E22C0B3
:100C9000DBFF120E23C0DBFF0F0EDBCF20F0100EA8
:100CA000DBCF21F0110EDBCF22F0120EDBCF23F0D1
:100CB000D950010F94D8EE502016EE502116EE5068
:100CC0002216EE502316205021102210231002E18C
:100CD000000E01D0010EE76E0C0EE7CFDBFFDB50FC
:100CE00055E0246A256A800E266E276A010E286E5A
:100CF000296A2A6A2B6AD9500F0F71D8EE5028261C
:100D0000EE502922EE502A22EE502B222850245C4D
:100D1000206E29502558216E2A502658226E2B50BD
:100D20002758236ED950010F5AD82050EE16215063
:100D3000EE162250EE162350EE16D950080FE66E2E
:100D4000000EDA20E66E50D889EC07F0E552E55245
:100D5000E552E5521BD0DF0419E1070EDB5006E037
:100D6000206A216A226A800E236E04D0206A216ADA
:100D7000226A236A080E20C0DBFF090E21C0DBFFB8
:100D80000A0E22C0DBFF0B0E23C0DBFFF60EDBCF0B
:100D9000E9FFF70EDBCFEAFF0C0EDBCFEFFF080E0B
:100DA000DBCF20F0090EDBCF21F00A0EDBCF22F0E3
:100DB0000B0EDBCF23F020C006F021C007F022C0CD
:100DC00008F023C009F0130EE15C02E2E16AE5528B
:100DD000E16EE552E5CFDAFFE7CFD9FF1200E96E09
:100DE000000EDA20EA6E1200D950010FE66E000EF6
:060DF000DA20E66E12009D
:0A0DF600D9CFE6FFDACFE6FFE1CF28
:100E0000D9FFE2CFDAFFE652206821687F0E226E1A
:100E1000236AD950FA0FE96EFF0EDA20EA6EEE501F
:100E20002016EE502116EE502216EE5023166AD8E8
:100E300020C0EEFF21C0EEFF22C0EEFF23C0EEFF78
:100E4000FD0EDB50800B02E0010E01D0000EE66EBD
:100E500059D8060EE926000EEA22E552E750EF6E59
:100E6000FC0EDBCF20F0FD0EDBCF21F0D89020363A
:100E70002136FC0E20C0DBFFFD0E21C0DBFFDB5066
:100E8000E66E40D8040EE926000EEA22E552E7504D
:100E9000EE6EED6AFD0EDB50206E216AFF0E20180B
:100EA00018E1215016E12ED8EECF20F0EECF21F040
:100EB000EECF22F0EFCF23F020502110221023108C
:100EC00006E0210E0001AD6FAE6B800E0BD0040E5C
:100ED00009D0FD0EDB5008E115D8EE6AEE6AEE6A25
:100EE000EE6A010EDF6E06D0020EDF6E0BD8EE52F8
:100EF000EE52EE8EDF50E552E552E5CFDAFFE7CF56
:100F0000D9FF1200F80EDBCFE9FFF90EDBCFEAFFC5
:020F10001200CD
:0E0F1200D9CFE6FFDACFE6FFE1CFD9FFE2CF7D
:100F2000DAFF5BD8213411E22050FE08000E215474
:100F30000CE276D805E06CD8800EEE6EEE6847D0F5
:100F400067D8800EEE6E7F0E0ED047D8D890215015
:100F500004E6010E205C000E21580BE261D805E08A
:100F600057D8EE6A800EEE6E32D052D8EE6AEE6A34
:100F70002ED047D8EECF20F0EECF21F0EECF22F0EA
:100F8000EFCF23F032D820C0EEFF21C0EEFF22C009
:100F9000EEFF23C0EEFF21D82050010B05E025D83D
:100FA000020E3AD8EF8E04D020D8020E35D8EF9E2C
:100FB00014D8D8902132203218D8030E2DD820C052
:100FC000EFFF1AD804E011D8030E26D8EF8EE552B1
:100FD000E5CFDAFFE7CFD9FF120013D8040E1CD8F3
:100FE000EECF20F0EFCF21F01200FA0EDBCFE9FFB9
:100FF000FB0EDBCFEAFF120004D8060E0DD8EF502F
:101000001200FC0EDBCFE9FFFD0EDBCFEAFF120082
:10101000ECDFEE6AEE6A1200E926000EEA22120008
:0C102000220E0001AD6FAE6BFCEF07F07C
:04102C00D9CFE6FF33
:10103000DACFE6FFE1CFD9FFE2CFDAFF060EE124F7
:1010400002E3E168E652E16ED950050FE66E000E4C
:10105000DA20E66E000EE66EE66AD950FA0FE96E07
:10106000FF0EDA20EA6EEECFE6FFEECFE6FFEECF20
:10107000E6FFEFCFE6FFB2EC05F0206E080EE15C74
:1010800002E2E16AE552E16E2050010E06C0DBFF8C
:10109000020E07C0DBFF030E08C0DBFF040E09C011
:1010A000DBFF050EDB502AE0040EDB50800B26E14F
:1010B000206A216A800E226E3F0E236ED950010FE6
:1010C000E96E000EDA20EA6EEECF07F0EECF08F000
:1010D000EECF09F0EFCF0AF020C00CF021C00DF0E8
:1010E00022C00EF023C00FF01CEC05F00AC0EDFF8B
:1010F00009C0EDFF08C0EDFF07C0EFFF010EDBCF19
:1011000020F0020EDBCF21F0030EDBCF22F0040E25
:10111000DBCF23F020C006F021C007F022C008F08A
:1011200023C009F0060EE15C02E2E16AE552E16EDD
:0C113000E552E5CFDAFFE7CFD9FF12004F
:04113C000E0EF66E2F
:10114000000EF76E000EF86E00010900F550A56F55
:101150000900F550A66F03E1A56701D03DD0090055
:10116000F550A06F0900F550A16F0900F550A26F6E
:1011700009000900F550E96E0900F550EA6E090012
:1011800009000900F550A36F0900F550A46F09008C
:101190000900F6CFA7F0F7CFA8F0F8CFA9F0A0C0CC
:1011A000F6FFA1C0F7FFA2C0F8FF0001A35302E1C0
:1011B000A45307E00900F550EE6EA307F8E2A40778
:1011C000F9D7A7C0F6FFA8C0F7FFA9C0F8FF000134
:0A11D000A507000EA65BBFD71200B2
:0611DA00056A046A100E14
:1011E000E76ED89008360936043605360D50045C93
:1011F0000E50055805E30D50045E0E50055A082A9E
:06120000E72EF0D71200FA
:0A120600000EF36E00EE00F0060E7D
:1012100001D81200EA6002D0EE6AFCD7F350E96010
:061220001200EE6AFCD78B
:0A12260015EE00F025EE00F0F86A66
:10123000019C9EEC08F003EC00F0B3EC03F0FBD74C
:0212400012009A
:0E1242000000E80300000000000000000000B3
:10125000000000000000000000000000000000008E
:0212600000008C
:020000040030CA
:0100010008F6
:0100020019E4
:010003001EDE
:0100050001F9
:00000001FF
