:020000040000FA
:06000000C2EF02F0120045
:020006001200E6
:06000800C6EF01F012003A
:02000E000100EF
:0C001000A0050000800000000E000000B1
:04001C00D9CFE6FF53
:10002000E1CFD9FF040EE126FD0EDBCF02F0FE0E7C
:10003000DBCF03F0033404E202500008000E035447
:1000400023E2DE6ADE6ADE6ADD6ADD52DD52D9CF86
:10005000E9FFDACFEAFF850EEE5C450EEE58010EA1
:10006000EE58000EEE580AE2D9CFE9FFDACFEAFFE8
:10007000EE2A000EEE22EE22EE22E9D7FD0EDB067E
:10008000FE0E01E2DB06D0D7040EE15C02E2E16A7B
:10009000E552E16EE552E7CFD9FF1200D9CFE6FF76
:1000A000E1CFD9FF020EE126FD0EDBCF02F0FE0EFE
:1000B000DBCF03F0033404E202500008000E0354C7
:1000C00016E2DE6ADD6ADECF02F0DDCF03F0820EDB
:1000D000025C000E035805E2DF2A010E01E3DB2A71
:1000E000F2D7FD0EDB06FE0E01E2DB06DDD7020EC7
:1000F000E15C02E2E16AE552E16EE552E7CFD9FF49
:100100001200D9CFE6FFE1CFD9FFE652FD0EDBCFDB
:1001100002F0FE0EDBCF03F0033404E202500008CD
:10012000000E03540CE2DF6A1C0EDF5C02E2DF2AE1
:10013000FBD7FD0EDB06FE0E01E2DB06E7D7DF6A2A
:10014000E552E552E7CFD9FF1200D9CFE6FFE1CF64
:10015000D9FF8B908B82FE0EDB508C6E8B920A0E39
:10016000E66EE66A9BDFE552E552E552E7CFD9FF3E
:100170001200D9CFE6FFE1CFD9FF8B808B82FE0E34
:10018000DB508C6E8B920A0EE66EE66A87DFE552D4
:10019000E552E552E7CFD9FF1200380EE66ED5DF03
:1001A000E5520C0EE66ED1DFE552010EE66ECDDFB4
:1001B000E5521200400EE66EC8DFE5521F0EE66EF5
:1001C000D8DFE552410EE66EC0DFE5521F0EE66E47
:1001D000D0DFE552420EE66EB8DFE5521F0EE66E46
:1001E000C8DFE552430EE66EB0DFE5521F0EE66E45
:1001F000C0DFE552440EE66EA8DFE5521F0EE66E44
:10020000B8DFE552450EE66EA0DFE5521F0EE66E42
:10021000B0DFE552460EE66E98DFE5521F0EE66E41
:10022000A8DFE552470EE66E90DFE5521F0EE66E40
:10023000A0DFE5521200800EE66E87DFE5528CC02B
:10024000E6FF8DC0E6FF0ED9E552E552E66E91DF7E
:10025000E5528AC0E6FF8BC0E6FF04D9E552E552BD
:10026000E66E87DFE55288C0E6FF89C0E6FFFAD870
:10027000E552E552E66E7DDFE55286C0E6FF87C0B7
:10028000E6FFF0D8E552E552E66E73DFE55284C032
:10029000E6FF85C0E6FFE6D8E552E552E66E69DF87
:1002A000E55282C0E6FF83C0E6FFDCD8E552E552A6
:1002B000E66E5FDFE552200EE66E5BDFE552870EED
:1002C000E66E43DFE5524B0EE66E53DFE5524D0E10
:1002D000E66E4FDFE5521200800EE66E36DFE55225
:1002E000300EE66E46DFE552200EE66E42DFE55246
:1002F000310EE66E3EDFE552200EE66E3ADFE55245
:10030000320EE66E36DFE552200EE66E32DFE55243
:10031000330EE66E2EDFE552200EE66E2ADFE55242
:10032000340EE66E26DFE552200EE66E22DFE55241
:10033000350EE66E1EDFE552200EE66E1ADFE55240
:10034000360EE66E16DFE552200EE66E12DFE5523F
:10035000C00EE66EFADEE552E66A0BDFE552E66AAB
:1003600008DFE552E66A05DFE552CD0EE66EEDDE0A
:10037000E552520EE66EFDDEE552500EE66EF9DEF7
:10038000E5524D0EE66EF5DEE5521200DACFE4FFDF
:10039000E2CFDAFFE652F2A261D00001802B000E1C
:1003A0008123F292D890815104E67D0E805D030E88
:1003B000815954E3822B000E8323833504E282515A
:1003C0000908000E835548E2826B836B842B000E74
:1003D0008523853504E284510908000E85553CE2E9
:1003E000846B856B862B000E8723873504E286514C
:1003F0000908000E875530E2866B876B882B000E4C
:100400008923893504E288510908000E895524E2C0
:10041000886B896B8A2B000E8B238B3504E28A5103
:100420000908000E8B5518E28A6B8B6B8C2B000E23
:100430008D238D3504E28C510908000E8D550CE298
:10044000826B836B846B856B866B876B886B896B28
:100450008A6B8B6B8C6B8D6B806B816BE552E5CF00
:10046000DAFF1100D9CFE6FFE1CFD9FFE652FD0E4A
:10047000DBCF02F0FE0EDBCF03F0300E0224DF6E86
:10048000DF5000D0E552E552E7CFD9FF1200F18CE2
:10049000F288F292F28E938093840F0EC16ED38C09
:1004A000D38AD388050E936E946A956A1200EFDFA3
:1004B00074DE80DE0A0EE66EE66AF0DDE552E55295
:0604C000BADEFED71200B7
:0A04C6000E0EF66E000EF76E000E2B
:1004D000F86E00010900F550936F0900F550946F14
:1004E00003E1936701D03DD00900F5508E6F0900FC
:1004F000F5508F6F0900F550906F09000900F55015
:10050000E96E0900F550EA6E090009000900F5508E
:10051000916F0900F550926F09000900F6CF95F030
:10052000F7CF96F0F8CF97F08EC0F6FF8FC0F7FFA9
:1005300090C0F8FF0001915302E1925307E00900D7
:10054000F550EE6E9107F8E29207F9D795C0F6FFE5
:1005500096C0F7FF97C0F8FF00019307000E945B69
:04056000BFD71200EF
:0C056400000EF36E00EE00F0060E01D851
:100570001200EA6002D0EE6AFCD7F350E960120084
:04058000EE6AFCD74C
:0C05840015EE00F025EE00F0F86A019C76
:1005900063EC02F003EC00F057EC02F0FBD7120022
:0E05A00000000000000000000000000000004D
:020000040030CA
:0100010008F6
:0100020019E4
:010003001EDE
:0100050001F9
:00000001FF
