:020000040000FA
:0600000006EF02F0120001
:0A00060001002A0400008A00000037
:0400100002000000EA
:0C001400D9CFE6FFE1CFD9FF040EE126B2
:10002000FD0EDBCF02F0FE0EDBCF03F0033404E263
:1000300002500008000E035423E2DE6ADE6ADE6A24
:10004000DD6ADD52DD52D9CFE9FFDACFEAFF850E56
:10005000EE5C450EEE58010EEE58000EEE580AE228
:10006000D9CFE9FFDACFEAFFEE2A000EEE22EE2228
:10007000EE22E9D7FD0EDB06FE0E01E2DB06D0D74D
:10008000040EE15C02E2E16AE552E16EE552E7CF7F
:10009000D9FF1200D9CFE6FFE1CFD9FF020EE1264A
:1000A000FD0EDBCF02F0FE0EDBCF03F0033404E2E3
:1000B00002500008000E035416E2DE6ADD6ADECF4D
:1000C00002F0DDCF03F0820E025C000E035805E261
:1000D000DF2A010E01E3DB2AF2D7FD0EDB06FE0E5E
:1000E00001E2DB06DDD7020EE15C02E2E16AE552E5
:1000F000E16EE552E7CFD9FF1200D9CFE6FFE1CF9D
:10010000D9FFE652FD0EDBCF02F0FE0EDBCF03F08F
:10011000033404E202500008000E03540CE2DF6ACC
:100120001C0EDF5C02E2DF2AFBD7FD0EDB06FE0EB3
:1001300001E2DB06E7D7DF6AE552E552E7CFD9FFF8
:100140001200D9CFE6FFE1CFD9FF8B908B82FE0E54
:10015000DB508C6E8B920A0EE66EE66A9BDFE552F0
:10016000E552E552E7CFD9FF1200D9CFE6FFE1CF44
:10017000D9FF8B808B82FE0EDB508C6E8B920A0E29
:10018000E66EE66A87DFE552E552E552E7CFD9FF32
:100190001200380EE66ED5DFE5520C0EE66ED1DFAA
:1001A000E552010EE66ECDDFE5521200800EE66EDE
:1001B000C8DFE552560EE66ED8DFE552310EE66E28
:1001C000D4DFE5523A0EE66ED0DFE552200EE66E41
:1001D000CCDFE552300EE66EC8DFE552300EE66E3B
:1001E000C4DFE5522C0EE66EC0DFE552300EE66E3F
:1001F000BCDFE552300EE66EB8DFE552200EE66E4B
:10020000B4DFE552560EE66EB0DFE552C00EE66E84
:1002100098DFE552560EE66EA8DFE552320EE66E26
:10022000A4DFE5523A0EE66EA0DFE552200EE66E40
:100230009CDFE552300EE66E98DFE552300EE66E3A
:1002400094DFE5522C0EE66E90DFE552300EE66E3E
:100250008CDFE552300EE66E88DFE552200EE66E4A
:1002600084DFE5526D0EE66E80DFE552560EE66ED7
:100270007CDFE5521200800EE66E63DFE552560E1B
:10028000E66E73DFE552200EE66E6FDFE552310E4B
:10029000E66E6BDFE552200EE66E67DFE552320E4A
:1002A000E66E63DFE552200EE66E5FDFE552330E49
:1002B000E66E5BDFE552200EE66E57DFE552340E48
:1002C000E66E53DFE552200EE66E4FDFE552350E47
:1002D000E66E4BDFE552200EE66E47DFE552360E46
:1002E000E66E43DFE552200EE66E3FDFE552CD0EAF
:1002F000E66E27DFE552520EE66E37DFE552500E0E
:10030000E66E33DFE5524D0EE66E2FDFE55212004A
:10031000F18CF288F292F28E030EC26E0D0EC16E57
:10032000A10EC06E92809282C16AD38CD38AD38888
:100330009268946A956A1200EBDF2BDF0A0EE66E74
:0E034000E66AA8DEE552E55231DFFED7120074
:02034E00060E99
:10035000F66E000EF76E000EF86E00010900F55003
:10036000856F0900F550866F03E1856701D03DD0A8
:100370000900F550806F0900F550816F0900F550B4
:10038000826F09000900F550E96E0900F550EA6E28
:10039000090009000900F550836F0900F550846FCA
:1003A00009000900F6CF87F0F7CF88F0F8CF89F081
:1003B00080C0F6FF81C0F7FF82C0F8FF00018353C1
:1003C00002E1845307E00900F550EE6E8307F8E27E
:1003D0008407F9D787C0F6FF88C0F7FF89C0F8FF08
:0C03E00000018507000E865BBFD71200ED
:0403EC00000EF36E9E
:1003F00000EE00F0060E01D81200EA6002D0EE6AAC
:0C040000FCD7F350E9601200EE6AFCD754
:04040C0015EE00F0F9
:1004100025EE00F0F86A019CA7EC01F014EC02F064
:080420009CEC01F0FBD7120077
:020428001200C0
:02042A000000D0
:020000040030CA
:0100010008F6
:0100020019E4
:010003001EDE
:0100050001F9
:00000001FF
