:020000040000FA
:06000000C7EF03F012003F
:0A0006000100AC0700008A000000B2
:0400100008000000E4
:0C001400D9CFE6FFE1CFD9FF020EE126B4
:10002000DE6ADD6ADECF14F0DDCF15F0D890155012
:1000300004E6F40E145C010E155805E2DF2A010EE9
:1000400001E3DB2AEFD7020EE15C02E2E16AE5524E
:10005000E16EE552E7CFD9FF1200D9CFE6FFE1CF3D
:10006000D9FF020EE126DE6ADD6ADECF14F0DDCFB5
:1000700015F0D890155004E6880E145C130E155830
:1000800005E2DF2A010E01E3DB2AEFD7020EE15C75
:1000900002E2E16AE552E16EE552E7CFD9FF1200D4
:1000A000D9CFE6FFE1CFD9FF8B808B82FE0EDB50EC
:1000B0008C6E8B92AFDFE552E7CFD9FF1200D9CF1C
:1000C000E6FFE1CFD9FF8B908B82FE0EDB508C6E6A
:1000D0008B92A0DFE552E7CFD9FF1200380EE66E13
:1000E000EEDFE5520C0EE66EEADFE552010EE66E3B
:1000F000E6DFE5521200C280C186C184C192C18090
:10010000C19AC198BC0EC06E946A956AA6DF6EEF64
:1001100000F0800EE66ED3DFE552430EE66EC0DFE0
:10012000E552610EE66EBCDFE5526E0EE66EB8DF9C
:10013000E552610EE66EB4DFE5526C0EE66EB0DF9E
:10014000E552310EE66EACDFE5523A0EE66EA8DF00
:10015000E552200EE66EA4DFE552300EE66EA0DF1B
:10016000E5522C0EE66E9CDFE552300EE66E98DF0F
:10017000E552300EE66E94DFE552560EE66E90DFE5
:10018000E552C00EE66E9BDFE552430EE66E88DF59
:10019000E552610EE66E84DFE5526E0EE66E80DF9C
:1001A000E552610EE66E7CDFE5526C0EE66E78DF9E
:1001B000E552320EE66E74DFE5523A0EE66E70DFFF
:1001C000E552200EE66E6CDFE552300EE66E68DF1B
:1001D000E5522C0EE66E64DFE552300EE66E60DF0F
:1001E000E552300EE66E5CDFE552560EE66E58DFE5
:1001F000E5521200D9CFE6FFE1CFD9FF0A0EE12682
:10020000DE6ADE6AA00EDE6E3B0EDD6EDD52DD5272
:1002100092C008F093C009F0F7EC01F0000EDFCFB8
:100220000CF0010EDBCF0DF0020EDBCF0EF0030E53
:10023000DBCF0FF00AEC02F0040E07C0DBFF050E67
:1002400008C0DBFF060E09C0DBFF070E0AC0DBFF9C
:10025000040EDBCF14F0050EDBCF15F0060EDBCF5E
:1002600016F0070EDBCF17F00C6A0D6AC80E0E6E83
:10027000420E0F6E14C007F015C008F016C009F04A
:1002800017C00AF00AEC02F09DEC02F0080E08C05C
:10029000DBFF090E09C0DBFF080EDBCF8AF0090E79
:1002A000DBCF8BF0640E0D6E0E6A8AC008F08BC037
:1002B00009F077EC02F008C08AF009C08BF0D95041
:1002C000080FE96EDACFEAFF640E0D6E0E6AEECF0C
:1002D00008F0EDCF09F077EC02F004C0EEFF05C0A6
:1002E000EDFF080EDBCF8CF0090EDBCF8DF00A0E90
:1002F0000D6E0E6A8CC008F08DC009F077EC02F02C
:1003000008C08CF009C08DF0D950080FE96EDACF23
:10031000EAFF0A0E0D6E0E6AEECF08F0EDCF09F07F
:1003200077EC02F004C0EEFF05C0EDFF080EDBCF56
:100330008EF0090EDBCF8FF0C2A405D0880EE66EDA
:10034000BEDEE55204D0C80EE66EB9DEE552300ED0
:1003500000018A25E66EA4DEE5522C0EE66EA0DED4
:10036000E552300E00018C25E66E9ADEE552300E25
:1003700000018E25E66E94DEE5520A0EE15C02E293
:10038000E16AE552E16EE552E7CFD9FF1200B3DE34
:10039000C0DEC29AC298C296C294C282C2B2FED7CE
:1003A000C450146E156A14C015F0146AC3500001CD
:1003B0001424926F000E1520936F1CDFC29AC2980E
:1003C000C296C284C282C2B2FED7C450146E156AED
:1003D00014C015F0146AC35000011424926F000E6B
:0A03E0001520936F07DFD5D7120038
:0603EA00019E08D0019EF7
:1003F00009AE05D0086C091EE86A0922018E09C001
:1004000003F008C002F0136A126A8E0E046E056AC9
:10041000E8EF02F0016A24EC03F03CEC03F001B6D3
:10042000CCEF02F001A205D001B8CCEF02F0D3EF7F
:1004300002F001AA05D001B0CCEF02F0D3EF02F038
:1004400001B002D001A802D0DFEF02F0056A0F5020
:100450000A24046EE86A05227E0E045EE86A055AE4
:10046000126A136A026A036A0E500902F4CF03F09B
:10047000F3CF02F00D500902F3501326F45002227C
:10048000000E03220E500802F3501326F4500222ED
:10049000000E03220C500902F3501226F4501322CE
:1004A000000E022203220D500802F3501226F450CF
:1004B0001322000E022203220E500702F3501226CE
:1004C000F4501322000E022203220C500802F450B2
:1004D0001226000E1322022203220D500702F450AE
:1004E0001226000E132202220322E8EF02F0006A15
:1004F0000EAE80EF02F00D6C0E1EE86A0E22001E9A
:1005000009AE88EF02F0086C091EE86A0922001E95
:10051000A1EC03F009BE98EF02F000AE000C086CED
:10052000091EE86A0922046C051EE86A0522000C0F
:1005300000BE8FEF02F00188FF0C016A24EC03F08B
:1005400001B6A7EF02F001A20ED001B405D07F0ED4
:10055000096EFF0E086E1FD0800E096E086A1BD050
:10056000096A086A18D001B0FBD78F0E0A60EDD770
:100570007E0E0A64F5D78E0E0A5C05E0D89009322B
:1005800008320A2AF8D701A406D0086C091EE86AC6
:10059000092209AEE5D712007F0E0A6EFF0E096E22
:1005A000086E076E12007F0E01BEFF0E0A6E02D0AB
:1005B0007F0E0A6E800E096E086A076AF3D701AED5
:1005C00004D0800E0A6E096AF7D70A6A096AF4D75E
:1005D0000350021013101210F8E005BEF0D703BE4E
:1005E0000CD004500510EBE0D890123613360236CA
:1005F00003360406D8A00506F2D70550D4E1042836
:10060000D2E012AE11D07F0E121402E113A00CD072
:10061000132AE86A0222032207E3D8800332023257
:100620001332042A0428BFE00450C9E013C007F0C5
:1006300002C008F00334096E04300A6E09320A9EC3
:1006400001BE0A8ED2EF02F009360A3602E30184B7
:10065000017E06E101800A6A096A086A076A1200D7
:100660000A2803E0D88009321200D890093202E14A
:1006700001821200018612000E360F3602E3018C51
:10068000017E06E101880F6A0E6A0D6A0C6A12008B
:100690000F2803E0D8800E321200D8900E32EAE123
:0406A000018A1200B9
:0C06A400060EF66E000EF76E000EF86EEB
:1006B00000010900F550856F0900F550866F03E1D0
:1006C000856701D03DD00900F550806F0900F550D5
:1006D000816F0900F550826F09000900F550E96E3D
:1006E0000900F550EA6E090009000900F550836F12
:1006F0000900F550846F09000900F6CF87F0F7CFA5
:1007000088F0F8CF89F080C0F6FF81C0F7FF82C083
:10071000F8FF0001835302E1845307E00900F5501C
:10072000EE6E8307F8E28407F9D787C0F6FF88C02A
:10073000F7FF89C0F8FF00018507000E865BBFD771
:020740001200A5
:0E074200056A046A100EE76ED8900836093674
:10075000043605360D50045C0E50055805E30D5067
:0E076000045E0E50055A082AE72EF0D712004C
:02076E00000E7B
:10077000F36E00EE00F0060E01D81200EA6002D01F
:0E078000EE6AFCD7F350E9601200EE6AFCD777
:02078E0015EE66
:1007900000F025EE00F0F86A019C52EC03F0D5EC75
:0A07A00003F0C7EC01F0FBD71200D4
:0207AA0012003B
:0407AC00FEFFFEFF4F
:0407B000FEFFFEFF4B
:00000001FF
